:020000040800F2
:1000000000280020CD120008D50F0008DB0F0008E3
:10001000E10F0008E70F0008ED0F000800000000E6
:10002000000000000000000000000000F30F0008C6
:10003000FF0F0008000000000B1000081710000858
:1000400015130008151300081513000815130008F0
:1000500015130008151300081513000815130008E0
:1000600015130008151300081513000815130008D0
:1000700015130008151300081513000815130008C0
:1000800015130008151300081513000815130008B0
:1000900015130008151300081513000815130008A0
:1000A0001513000815130008151300081513000890
:1000B00025100008151300080000000015130008A3
:1000C00015130008000000000000000015130008D0
:1000D00000000000151300081513000800000000C0
:1000E0001513000815130008151300080000000080
:1000F0000000000000000000000000000000000000
:0C01000000000000000000005FF808F1A3
:10010C0010B5054C237833B9044B13B10448AFF345
:10011C0000800123237010BD880000200000000027
:10012C00F82A000808B5034B1BB103490348AFF389
:10013C00008008BD000000008C000020F82A000898
:10014C0080B483B000AF7860094A7B6852F82330E2
:10015C00012B06D1064A7B68002142F823100123AB
:10016C0000E0002318460C37BD4680BC704700BF2A
:10017C00F400002080B582B000AF00237B6012E059
:10018C00474A7B6852F8232046497B6841F8232074
:10019C00454A7B6852F8232041497B6841F823206B
:1001AC007B6801337B607B68022BE9DD4FF40051E7
:1001BC003E4801F095FB03461A463B4B1A604FF440
:1001CC0080413A4801F08CFB03461A46364B5A6084
:1001DC004FF40041354801F083FB03461A46324B7D
:1001EC009A6000233B6052E02D4A3B6852F8232072
:1001FC002D493B6851F823309A4245D1284A3B6837
:10020C0052F8232027493B6851F823309A423BD1BE
:10021C00244A3B6852F8232025493B6851F8233087
:10022C009A4218D01F4A3B6852F8232020493B6859
:10023C0041F823201E4A3B6852F82330002B23D16F
:10024C001C4A3B68012142F823101B4A3B6864217D
:10025C0042F8231018E0184A3B6852F823305A1E13
:10026C0015493B6841F82320134A3B6852F8233068
:10027C00002B09D1104A3B68642142F823100C4A28
:10028C003B68012142F823103B6801333B603B681B
:10029C00022BA9DD00BF00BF0837BD4680BD00BFE3
:1002AC00D000002000010020C4000020000C014000
:1002BC00B8000020F4000020DC000020B0B58EB0A7
:1002CC0000AF78603960604B07F108041D460FCD14
:1002DC000FC40FCD0FC495E8030084E803007B68BE
:1002EC009B0007F13802134453F8303C7B633B68A6
:1002FC009B0007F13802134453F8303C3B637B6B93
:10030C00DBB203F00103DBB21A4680214F4801F047
:10031C00FEFA7B6B5B10DBB203F00103DBB21A4617
:10032C004FF48071494801F0F2FA7B6B9B10DBB201
:10033C0003F00103DBB21A464FF40071434801F09D
:10034C00E6FA7B6BDB10DBB203F00103DBB21A467F
:10035C004FF480613D4801F0DAFA7B6B1B11DBB284
:10036C0003F00103DBB21A464FF40061374801F089
:10037C00CEFA7B6B5B11DBB203F00103DBB21A46E6
:10038C004FF48051314801F0C2FA7B6B9B11DBB208
:10039C0003F00103DBB21A464FF400512B4801F075
:1003AC00B6FA3B6BDBB203F00103DBB21A464FF437
:1003BC008041264801F0ABFA3B6B5B10DBB203F0DB
:1003CC000103DBB21A464FF40041204801F09FFABA
:1003DC003B6B9B10DBB203F00103DBB21A4601212D
:1003EC001B4801F094FA3B6BDB10DBB203F001030A
:1003FC00DBB21A460221164801F089FA3B6B1B113D
:10040C00DBB203F00103DBB21A460421104801F001
:10041C007EFA3B6B5B11DBB203F00103DBB21A46D5
:10042C0008210B4801F073FA3B6B9B11DBB203F014
:10043C000103DBB21A461021054801F068FA00BF2F
:10044C003837BD46B0BD00BF102B00080008014076
:10045C00000C014080B500AF2D4BDB68012B0ED199
:10046C004FF4FA71032000F0F5FC2A4B1B68002BAB
:10047C000CBF01230023DBB21A46264B1A60254B16
:10048C001B68002B21D101224021234801F03FFAA7
:10049C0000228021204801F03AFA204B1B68204AA8
:1004AC0082FB03129210DB17D01A1C4B1A681C4BE0
:1004BC0083FB02139910D317C91A0B469B000B44EC
:1004CC005B00D11AFFF7FAFE20E00022402112480F
:1004DC0001F01DFA012280210F4801F018FA114B8E
:1004EC001B680F4A82FB03129210DB17D01A0D4BBC
:1004FC001A680B4B83FB02139910D317C91A0B46BE
:10050C009B000B445B00D11AFFF7D8FE00BF80BDE7
:10051C0040010020A4000020000C01400C01002030
:10052C00676666666C01002080B500AF664B1B6881
:10053C00012B00F3C180002000F0DCFC0346634A71
:10054C0082FB03129211DB17D31A0133604A13603A
:10055C00012000F0CFFC03465C4A82FB031292118F
:10056C00DB17D31A01335B4A1360FFF773FF5A4B47
:10057C001B68013B052B4ED801A252F823F000BF9B
:10058C00A5050008B905000823060008F9050008B0
:10059C0023060008D90500084F4B02221A604F4B66
:1005AC001B681946002000F055FC34E000F09EFD5D
:1005BC004B4B1B68002B29D0474B06221A60494B2A
:1005CC001B681946002000F045FC1FE000F0CEFD32
:1005DC00434B1B68002B1BD03F4B04221A60424B31
:1005EC001B681946002000F035FC11E000F09EFD60
:1005FC003B4B1B68002B0DD0374B02221A60374B3C
:10060C001B681946002000F025FC03E000BF02E047
:10061C0000BF00E000BF354B1B68013B062B52D8D6
:10062C0001A252F823F000BF51060008D3060008BF
:10063C00A5060008D306000885060008D3060008A6
:10064C0065060008294B07221A60264B1B681946C1
:10065C00012000F0FFFB36E000F098FD204B5B68BA
:10066C00002B2BD0214B05221A601F4B1B681946FF
:10067C00012000F0EFFB21E000F068FD184B5B68F7
:10068C00002B1DD0194B03221A60144B1B68194602
:10069C00012000F0DFFB13E000F038FD104B5B682D
:1006AC00002B0FD0114B07221A600E4B1B681946FA
:1006BC00012000F0CFFB05E000BF04E000BF02E02A
:1006CC0000BF00E000BF80BD00000020D34D6210D1
:1006DC000C0100206C010020100000200400002000
:1006EC00400100200C000020080000201400002015
:1006FC0080B500AF814B1B68012B04D1804B1B686C
:10070C00042B00F0F980FFF7A5FE7C4B1B68042B33
:10071C0000F0A480042B00F3F080022B02D0032BFA
:10072C004ED0EAE000F042FD0120FFF709FD034640
:10073C00012B13D1734B1B6803F57A73714A136049
:10074C00704B1A68704B1B681344704A934205DD5A
:10075C006D4B1B68C3F57A736A4A13600220FFF76E
:10076C00EFFC0346012B19D1674B1A68654B1B68CC
:10077C001344654A1360644B1A68654B1B68D31AA3
:10078C00644A1360604B1B68604A934203DD5E4B06
:10079C004FF47A721A605B4B00221A605A4B1A683B
:1007AC00584B1B6813445C4A82FB03129211DB17F3
:1007BC00D31A5A4A1360514B1B68594A13609CE078
:1007CC0000F022FD0120FFF7BBFC0346012B13D1E7
:1007DC00544B1B6803F57A73524A1360514B1A68D9
:1007EC004B4B1B681344494A934205DD484B1B682D
:1007FC00C3F57A734B4A13600220FFF7A1FC034642
:10080C00012B19D1424B1A68464B1B681344404AC2
:10081C0013603F4B1A683F4B1B6813443A4A1360F2
:10082C003B4B1B68394A934203DD394B4FF47A72C8
:10083C001A603C4B00221A60354B1A68394B1B6806
:10084C001344354A82FB03129211DB17D31A334A35
:10085C0013602A4B1B68324A13604EE000F002FD15
:10086C000120FFF76DFC0346012B13D12E4B1B68A7
:10087C0003F57A732C4A13602B4B1A68254B1B68B3
:10088C001344224A934205DD224B1B68C3F57A734D
:10089C00254A13600220FFF753FC0346012B19D1A4
:1008AC001C4B1A68204B1B6813441A4A1360184BD4
:1008BC001A68184B1B681344134A1360154B1B68BA
:1008CC00124A934203DD134B4FF47A721A60164BA3
:1008DC0000221A600F4B1A68134B1B6813440E4A04
:1008EC0082FB03129211DB17D31A0C4A1360034BD1
:1008FC001B680B4A136000E000BF80BD00000020A5
:10090C00A80000206801002004000020B88201002B
:10091C00080000200C000020D34D62100C010020B8
:10092C006C0100203C0100203801002080B500AF94
:10093C000020FFF705FC0346012B30D100F0B2FB81
:10094C00184B1B680133174A1360164B1B68013B8D
:10095C005A4203F0030302F0030258BF5342124AF7
:10096C001360104B1B68042B19DD104B01221A600D
:10097C000F4B01221A600F4B00221A600E4B002203
:10098C001A600E4B00221A600D4B00221A604FF4B5
:10099C00FA71032000F05EFA024B01221A6000BFCC
:1009AC0080BD00BF00000020A80000201000002027
:1009BC0014000020680100203C01002038010020B8
:1009CC00A400002080B500AF00F0A0FC00F02EF8D1
:1009DC0000F068F800F0B2F8104801F0F5FB4FF4A5
:1009EC00FA71032000F036FA4FF4FA71042000F08B
:1009FC0031FA00F019F901220021094800F0A0F9A0
:100A0C0001220121074800F09BF90122022106482E
:100A1C0000F096F900F04CF9FCE700BF78010020DB
:100A2C003909000835050008FD06000880B590B0AE
:100A3C0000AF07F1180328220021184601F08AFFA5
:100A4C003B1D00221A605A609A60DA601A61022318
:100A5C00BB610123BB621023FB6200237B6307F1A4
:100A6C001803184600F084FF0346002B01D000F059
:100A7C00D5F80F237B600023BB600023FB600023B1
:100A8C003B6100237B613B1D0021184601F0F0F90E
:100A9C000346002B01D000F0C1F800BF4037BD4623
:100AAC0080BD000080B586B000AF07F108030022BE
:100ABC001A605A609A60DA603B4600221A605A60EB
:100ACC001D4B4FF080421A601B4B41F63F725A602F
:100ADC00194B00229A60184B0922DA60164B00223F
:100AEC001A61154B00229A61134801F01DFB034655
:100AFC00002B01D000F092F84FF48053BB6007F14B
:100B0C00080319460C4801F09BFC0346002B01D04E
:100B1C0000F084F800233B6000237B603B461946C1
:100B2C00054801F073FE0346002B01D000F076F867
:100B3C0000BF1837BD4680BD7801002080B586B057
:100B4C0000AF07F1080300221A605A609A60DA605D
:100B5C00284B9B69274A43F004039361254B9B69FF
:100B6C0003F004037B607B68224B9B69214A43F0B2
:100B7C00080393611F4B9B6903F008033B603B68C0
:100B8C0000224FF6FE711C4800F0C1FE0022DF214E
:100B9C001A4800F0BCFE4FF6FE73BB600123FB60ED
:100BAC0000233B6102237B6107F1080319461248BD
:100BBC0000F01CFDDF23BB600123FB6000233B61C5
:100BCC0002237B6107F1080319460C4800F00EFD67
:100BDC004FF46043BB600023FB6001233B6107F1D2
:100BEC0008031946054800F001FD00BF1837BD4643
:100BFC0080BD00BF0010024000080140000C014005
:100C0C0080B582B000AF786000F01EF800F042F9B9
:100C1C00FFF7B0FA00BF0837BD4680BD80B400AF07
:100C2C0072B600BFFEE7000080B400AF044B002298
:100C3C001A60044B00221A6000BFBD4680BC70478E
:100C4C00740100207001002080B582B000AF164BFB
:100C5C001B680133144A1360144B1B68002B1FD004
:100C6C00124B1B687B607B685A680F4B1B689A425F
:100C7C0017D87B681B6898477B689B68002B07D04C
:100C8C007B689A68084B1B681A447B685A6008E0BA
:100C9C007B68DB68054A1360786801F053FE00E05E
:100CAC0000BF0837BD4680BD7401002070010020D4
:100CBC0080B582B000AF204B1B687B600023FB70BB
:100CCC0031E07B685A681D4B1B689A4225D87B68BB
:100CDC001B6898477B689B68002B0DD07B689A68D3
:100CEC00164B1B681A447B685A607B68DB687B6018
:100CFC00FB780133FB7016E0FB78184600F074F8B3
:100D0C000346BB70BB78012B03D17B68DB687B602F
:100D1C0009E07B68DB687B6005E07B68DB687B60F7
:100D2C00FB780133FB707B68002BCAD100BF00BF7E
:100D3C000837BD4680BD00BF700100207401002043
:100D4C0080B586B000AFF860B9607A60102001F011
:100D5C00F1FD03463B613B69002B01D128233AE0AE
:100D6C003B69FA681A601E4B1A68BB681A443B69E7
:100D7C005A603B697A689A603B690022DA60194BC9
:100D8C001B68002B06D0174B1B685A683B695B68C5
:100D9C009A4207D9134B1A683B69DA60114A3B69CE
:100DAC00136017E00F4B1B687B6102E07B69DB680B
:100DBC007B617B69DB68002B05D07B695A683B69DA
:100DCC005B689A42F2D97B69DA683B69DA607B69C5
:100DDC003A69DA60012318461837BD4680BD00BF5A
:100DEC00740100207001002080B586B000AF7860DF
:100DFC00174B1B687B6100233B610023FB7307E0EF
:100E0C007B693B617B69DB687B61FB7B0133FB733B
:100E1C007B69002B03D0FB7B7A689A42F0DC7B6900
:100E2C00002B01D100230FE03B69002B04D17B691F
:100E3C00DB68074A136003E07B69DA683B69DA60B8
:100E4C00786901F07FFD012318461837BD4680BD37
:100E5C007001002080B483B000AF786039600A4A1A
:100E6C007B68002142F823103B68084A82FB03127E
:100E7C009210DB17D21A06497B6841F8232000BF79
:100E8C000C37BD4680BC7047400100206766666623
:100E9C001001002080B483B000AF00237B601CE005
:100EAC00124A7B6852F82330002B13DD0F4A7B6803
:100EBC0052F823305A1E0D497B6841F823200B4A07
:100ECC007B6852F82330002B04DC094A7B68012133
:100EDC0042F823107B6801337B607B68092BDFDDD4
:100EEC0000BF00BF0C37BD4680BC7047100100200E
:100EFC004001002080B483B000AF7860064A7B6864
:100F0C0052F8232013469B0013445B0018460C3701
:100F1C00BD4680BC704700BF1001002080B485B076
:100F2C0000AF154B9B69144A43F001039361124BBC
:100F3C009B6903F00103BB60BB680F4BDB690E4A76
:100F4C0043F08053D3610C4BDB6903F080537B601F
:100F5C007B680A4B5B68FB60FB6823F0E063FB601B
:100F6C00FB6843F08063FB60044AFB68536000BF7E
:100F7C001437BD4680BC7047001002400000014091
:100F8C0080B584B000AF78607B681B68B3F1804F8C
:100F9C0013D10C4BDB690B4A43F00103D361094BB2
:100FAC00DB6903F00103FB60FB68002200211C20BD
:100FBC0000F0E5FA1C2000F0FEFA00BF1037BD4629
:100FCC0080BD00BF0010024080B400AFFEE780B4CB
:100FDC0000AFFEE780B400AFFEE780B400AFFEE7E1
:100FEC0080B400AFFEE780B400AF00BFBD4680BC4C
:100FFC00704780B400AF00BFBD4680BC704780B462
:10100C0000AF00BFBD4680BC704780B500AF00F09C
:10101C00C3F900BF80BD000080B500AF024801F0ED
:10102C001FF900BF80BD00BF7801002080B586B0DD
:10103C0000AF7860144A154BD31A7B617B693B6116
:10104C00134B1B68002B02D1114B124A1A60104B28
:10105C001A687B6813443A699A4207D201F040FC43
:10106C0003460C221A604FF0FF3309E0084B1B6853
:10107C00FB60074B1A687B681344054A1360FB68D6
:10108C0018461837BD4680BD00280020000400001B
:10109C00AC000020D801002080B400AF00BFBD46DA
:1010AC0080BC704780B500AF002202210E4800F0D2
:1010BC002EFC002204210C4800F029FC00220821FF
:1010CC00094800F024FC00221021074800F01FFC06
:1010DC0000222021044800F01AFC00224021024882
:1010EC0000F015FC00BF80BD0008014080B500AFCA
:1010FC0000220421044800F00AFC012202210248CB
:10110C0000F005FC00BF80BD0008014080B500AFB9
:10111C0000222021044800F0FAFB01221021024891
:10112C0000F0F5FB00BF80BD0008014080B500AFAA
:10113C0000220821044800F0EAFB012204210248A5
:10114C0000F0E5FB00BF80BD0008014080B500AF9A
:10115C0000224021044800F0DAFB01222021024841
:10116C0000F0D5FB00BF80BD0008014080B500AF8A
:10117C0000220221044800F0CAFB01220821024887
:10118C0000F0C5FB00BF80BD0008014080B500AF7A
:10119C0000221021044800F0BAFB01224021024831
:1011AC0000F0B5FB00BF80BD0008014080B500AF6A
:1011BC00134B1B69012B20D14FF4FA710420FFF75C
:1011CC0049FE02210F4800F0BAFB10210D4800F037
:1011DC00B6FB002204210B4800F099FB00220821E9
:1011EC00084800F094FB00222021064800F08FFBF9
:1011FC0000224021034800F08AFB00BF80BD00BFE5
:10120C00400100200008014080B500AF134B1B6962
:10121C00012B20D14FF4FA710420FFF71BFE04219F
:10122C000F4800F08CFB20210D4800F088FB0022B9
:10123C0002210B4800F06BFB00220821084800F04B
:10124C0066FB00221021064800F061FB00224021C1
:10125C00034800F05CFB00BF80BD00BF40010020D4
:10126C000008014080B500AF134B1B69012B20D146
:10127C004FF4FA710420FFF7EDFD08210F4800F040
:10128C005EFB40210D4800F05AFB002202210B4866
:10129C0000F03DFB00220421084800F038FB00223E
:1012AC002021064800F033FB00221021034800F0F7
:1012BC002EFB00BF80BD00BF400100200008014094
:1012CC00FFF7EAFE0B480C490C4A002302E0D45805
:1012DC00C4500433C4188C42F9D3094A094C002376
:1012EC0001E013600432A242FBD301F0FFFAFFF7D6
:1012FC0069FB70470000002088000020642B000868
:10130C0088000020D4010020FEE7000080B500AF6B
:10131C00084B1B68074A43F010031360032000F0CE
:10132C0023F90F2000F008F8FFF7F8FD002318460A
:10133C0080BD00BF0020024080B582B000AF786055
:10134C00124B1A68124B1B7819464FF47A73B3FB85
:10135C00F1F3B2FBF3F3184600F03BF90346002B14
:10136C0001D001230EE07B680F2B0AD8002279688C
:10137C004FF0FF3000F003F9064A7B68136000233E
:10138C0000E0012318460837BD4680BD1800002038
:10139C00200000201C00002080B400AF054B1B78FF
:1013AC001A46054B1B681344034A136000BFBD4625
:1013BC0080BC704720000020C001002080B400AF2A
:1013CC00024B1B681846BD4680BC7047C00100200C
:1013DC0080B485B000AF78607B6803F00703FB60D6
:1013EC000C4BDB68BB60BA684FF6FF031340BB6065
:1013FC00FB681A02BB68134343F0BF6343F400332A
:10140C00BB60044ABB68D36000BF1437BD4680BCC8
:10141C00704700BF00ED00E080B400AF044BDB6808
:10142C001B0A03F007031846BD4680BC704700BF7B
:10143C0000ED00E080B483B000AF0346FB7197F978
:10144C000730002B0BDBFB7903F01F02064997F9E1
:10145C0007305B09012000FA02F241F8232000BF9B
:10146C000C37BD4680BC704700E100E080B483B00F
:10147C0000AF03463960FB7197F90730002B0ADB8C
:10148C003B68DAB20C4997F907301201D2B20B441F
:10149C0083F800230AE03B68DAB20849FB7903F0D1
:1014AC000F03043B1201D2B20B441A7600BF0C3767
:1014BC00BD4680BC704700BF00E100E000ED00E0DD
:1014CC0080B489B000AFF860B9607A60FB6803F053
:1014DC000703FB61FB69C3F10703042B28BF04233B
:1014EC00BB61FB690433062B02D9FB69033B00E0AB
:1014FC0000237B614FF0FF32BB6902FA03F3DA433E
:10150C00BB681A407B699A404FF0FF317B6901FA46
:10151C0003F3D9437B680B40134318462437BD466D
:10152C0080BC704780B582B000AF78607B68013BAF
:10153C00B3F1807F01D301230FE00A4A7B68013BA2
:10154C0053600F214FF0FF30FFF790FF054B002247
:10155C009A60044B07221A60002318460837BD46D0
:10156C0080BD00BF10E000E080B582B000AF7860B5
:10157C007868FFF72DFF00BF0837BD4680BD80B5EA
:10158C0086B000AF0346B9607A60FB7300237B61C1
:10159C00FFF742FF78617A68B9687869FFF790FFC6
:1015AC00024697F90F3011461846FFF75FFF00BF50
:1015BC001837BD4680BD80B582B000AF0346FB71C5
:1015CC0097F907301846FFF735FF00BF0837BD46BF
:1015DC0080BD80B582B000AF78607868FFF7A2FF5D
:1015EC00034618460837BD4680BD000080B48BB05A
:1015FC0000AF7860396000237B6200233B6248E1D6
:10160C0001227B6A02FA03F3FB613B681B68FA69EF
:10161C001340BB61BA69FB699A4240F037813B6861
:10162C005B68A34A93425ED0A14A934275D8A14A03
:10163C00934258D09F4A93426FD89F4A934252D0BC
:10164C009D4A934269D89D4A93424CD09B4A9342FF
:10165C0063D89B4A934246D0994A93425DD8122B49
:10166C002AD8122B59D801A252F823F0F3160008ED
:10167C00CD160008DF1600082117000827170008F0
:10168C002717000827170008271700082717000836
:10169C002717000827170008271700082717000826
:1016AC002717000827170008271700082717000816
:1016BC00D5160008E9160008824A934213D02CE094
:1016CC003B68DB683B6229E03B68DB6804333B62C8
:1016DC0024E03B68DB6808333B621FE03B68DB6857
:1016EC000C333B621AE03B689B68002B02D104234D
:1016FC003B6213E03B689B68012B05D108233B62DE
:10170C007B68FA691A6109E008233B627B68FA6915
:10171C005A6103E000233B6200E000BFBB69FF2B72
:10172C0001D87B6801E07B6804337B61BB69FF2BCC
:10173C0002D87B6A9B0002E07B6A083B9B003B6102
:10174C007B691A680F213B6901FA03F3DB431A40EA
:10175C00396A3B6901FA03F31A437B691A603B68E7
:10176C005B6803F08053002B00F09080564B9B6914
:10177C00554A43F001039361534B9B6903F00103FA
:10178C00BB60BB68514A7B6A9B08023352F823301A
:10179C00FB607B6A03F003039B000F2202FA03F346
:1017AC00DB43FA681340FB607B68494A93420DD0D7
:1017BC007B68484A934207D07B68474A934201D1E1
:1017CC00022304E0032302E0012300E000237A6AF1
:1017DC0002F0030292009340FA681343FB603B490A
:1017EC007B6A9B080233FA6841F823203B685B68EC
:1017FC0003F48013002B06D0384B9A683749BB6929
:10180C0013438B6006E0354B9A68BB69DB43334965
:10181C0013408B603B685B6803F40013002B06D00D
:10182C002E4BDA682D49BB691343CB6006E02B4B7A
:10183C00DA68BB69DB4329491340CB603B685B68C2
:10184C0003F40033002B06D0244B5A682349BB69A0
:10185C0013434B6006E0214B5A68BB69DB431F49BD
:10186C0013404B603B685B6803F48033002B06D05D
:10187C001A4B1A681949BB6913430B6006E0174BE6
:10188C001A68BB69DB43154913400B607B6A013353
:10189C007B623B681A687B6A22FA03F3002B7FF4A5
:1018AC00AFAE00BF00BF2C37BD4680BC704700BF39
:1018BC000000321000003110000022100000211036
:1018CC000000121000001110001002400000014036
:1018DC0000080140000C01400010014000040140D0
:1018EC0080B485B000AF78600B467B807B689A68CB
:1018FC007B881340002B02D00123FB7301E00023F3
:10190C00FB73FB7B18461437BD4680BC704780B414
:10191C0083B000AF78600B467B8013467B707B787E
:10192C00002B03D07A887B681A6103E07B881A0449
:10193C007B681A6100BF0C37BD4680BC704780B411
:10194C0085B000AF78600B467B807B68DB68FB6002
:10195C007A88FB6813401A04FB68D9437B880B40D8
:10196C001A437B681A6100BF1437BD4680BC7047B0
:10197C0080B586B000AF78607B68002B01D1012365
:10198C006CE27B681B6803F00103002B00F087807E
:10199C00924B5B6803F00C03042B0CD08F4B5B68F1
:1019AC0003F00C03082B12D18C4B5B6803F48033CF
:1019BC00B3F5803F0BD1894B1B6803F40033002B2C
:1019CC006CD07B685B68002B68D1012346E27B6896
:1019DC005B68B3F5803F06D1804B1B687F4A43F4AC
:1019EC00803313602EE07B685B68002B0CD17B4B43
:1019FC001B687A4A23F480331360784B1B68774A50
:101A0C0023F4802313601DE07B685B68B3F5A02F83
:101A1C000CD1724B1B68714A43F4802313606F4BDB
:101A2C001B686E4A43F4803313600BE06B4B1B68EE
:101A3C006A4A23F480331360684B1B68674A23F4AB
:101A4C00802313607B685B68002B13D0FFF7B6FC18
:101A5C00386108E0FFF7B2FC02463B69D31A642BED
:101A6C0001D90323FAE15D4B1B6803F40033002B0F
:101A7C00F0D014E0FFF7A2FC386108E0FFF79EFC01
:101A8C0002463B69D31A642B01D90323E6E1534B7D
:101A9C001B6803F40033002BF0D100E000BF7B681F
:101AAC001B6803F00203002B63D04C4B5B6803F004
:101ABC000C03002B0BD0494B5B6803F00C03082B79
:101ACC001CD1464B5B6803F48033002B16D1434B7F
:101ADC001B6803F00203002B05D07B681B69012BEC
:101AEC0001D00123BAE13D4B1B6823F0F8027B685F
:101AFC005B69DB00394913430B603AE07B681B6977
:101B0C00002B20D0364B01221A60FFF757FC3861AE
:101B1C0008E0FFF753FC02463B69D31A022B01D9AC
:101B2C0003239BE12D4B1B6803F00203002BF0D029
:101B3C002A4B1B6823F0F8027B685B69DB002749A2
:101B4C0013430B6015E0264B00221A60FFF736FC9E
:101B5C00386108E0FFF732FC02463B69D31A022BCE
:101B6C0001D903237AE11D4B1B6803F00203002B00
:101B7C00F0D17B681B6803F00803002B3AD07B681C
:101B8C009B69002B19D0174B01221A60FFF716FC2A
:101B9C00386108E0FFF712FC02463B69D31A022BAE
:101BAC0001D903235AE10D4B5B6A03F00203002BAE
:101BBC00F0D0012000F09AFA1CE00A4B00221A60C7
:101BCC00FFF7FCFB38610FE0FFF7F8FB02463B69BF
:101BDC00D31A022B08D9032340E100BF00100240A6
:101BEC0000004242800442429E4B5B6A03F00203B7
:101BFC00002BE9D17B681B6803F00403002B00F079
:101C0C00A6800023FB75974BDB6903F08053002BF8
:101C1C000DD1944BDB69934A43F08053D361914BC4
:101C2C00DB6903F08053BB60BB680123FB758E4BF3
:101C3C001B6803F48073002B18D18B4B1B688A4AEA
:101C4C0043F480731360FFF7B9FB386108E0FFF7CA
:101C5C00B5FB02463B69D31A642B01D90323FDE083
:101C6C00814B1B6803F48073002BF0D07B68DB681E
:101C7C00012B06D17B4B1B6A7A4A43F0010313629A
:101C8C002DE07B68DB68002B0CD1764B1B6A754A08
:101C9C0023F001031362734B1B6A724A23F0040393
:101CAC0013621CE07B68DB68052B0CD16D4B1B6A47
:101CBC006C4A43F0040313626A4B1B6A694A43F093
:101CCC00010313620BE0674B1B6A664A23F00103A6
:101CDC001362644B1B6A634A23F0040313627B6830
:101CEC00DB68002B15D0FFF769FB38610AE0FFF7C2
:101CFC0065FB02463B69D31A41F28832934201D903
:101D0C000323ABE0574B1B6A03F00203002BEED00E
:101D1C0014E0FFF753FB38610AE0FFF74FFB024674
:101D2C003B69D31A41F28832934201D9032395E0DF
:101D3C004C4B1B6A03F00203002BEED1FB7D012BF5
:101D4C0005D1484BDB69474A23F08053D3617B684C
:101D5C00DB69002B00F08180424B5B6803F00C03C5
:101D6C00082B61D07B68DB69022B46D13F4B0022EC
:101D7C001A60FFF723FB386108E0FFF71FFB0246F0
:101D8C003B69D31A022B01D9032367E0354B1B683F
:101D9C0003F00073002BF0D17B681B6AB3F5803F16
:101DAC0008D1304B5B6823F400327B689B682D496B
:101DBC0013434B602B4B5B6823F474127B68196ADA
:101DCC007B685B6A0B43274913434B60274B01220B
:101DDC001A60FFF7F3FA386108E0FFF7EFFA0246F2
:101DEC003B69D31A022B01D9032337E01D4B1B6827
:101DFC0003F00073002BF0D02FE01C4B00221A6074
:101E0C00FFF7DCFA386108E0FFF7D8FA02463B69C5
:101E1C00D31A022B01D9032320E0124B1B6803F0C9
:101E2C000073002BF0D118E07B68DB69012B01D12A
:101E3C00012313E00B4B5B68FB60FB6803F48032FF
:101E4C007B681B6A9A4206D1FB6803F470127B68AC
:101E5C005B6A9A4201D0012300E000231846183730
:101E6C00BD4680BD00100240007000406000424240
:101E7C0080B584B000AF786039607B68002B01D1ED
:101E8C000123D0E06A4B1B6803F007033A689A42BF
:101E9C0010D9674B1B6823F0070265493B68134355
:101EAC000B60634B1B6803F007033A689A4201D03E
:101EBC000123B8E07B681B6803F00203002B20D0E1
:101ECC007B681B6803F00403002B05D0594B5B683F
:101EDC00584A43F4E06353607B681B6803F00803C3
:101EEC00002B05D0534B5B68524A43F4605353604C
:101EFC00504B5B6823F0F0027B689B684D491343A1
:101F0C004B607B681B6803F00103002B40D07B689F
:101F1C005B68012B07D1474B1B6803F40033002B84
:101F2C0015D101237FE07B685B68022B07D1414B05
:101F3C001B6803F00073002B09D1012373E03D4BA8
:101F4C001B6803F00203002B01D101236BE0394B1A
:101F5C005B6823F003027B685B68364913434B6074
:101F6C00FFF72CFAF8600AE0FFF728FA0246FB6844
:101F7C00D31A41F28832934201D9032353E02D4BFB
:101F8C005B6803F00C027B685B689B009A42EBD1A8
:101F9C00274B1B6803F007033A689A4210D2244B74
:101FAC001B6823F0070222493B6813430B60204B4C
:101FBC001B6803F007033A689A4201D0012332E010
:101FCC007B681B6803F00403002B08D0194B5B687B
:101FDC0023F4E0627B68DB68164913434B607B6833
:101FEC001B6803F00803002B09D0124B5B6823F429
:101FFC0060527B681B69DB000E4913434B6000F099
:10200C0021F802460B4B5B681B0903F00F030A49CE
:10201C00CB5C22FA03F3094A1360094B1B68184680
:10202C00FFF78AF9002318461037BD4680BD00BF64
:10203C000020024000100240382B0008180000203D
:10204C001C00002080B487B000AF0023FB6000238D
:10205C00BB6000237B6100237B6000233B611E4B34
:10206C005B68FB60FB6803F00C03042B02D0082BAD
:10207C0003D027E0194B3B6127E0FB689B0C03F076
:10208C000F03174AD35C7B60FB6803F48033002B8F
:10209C0010D0114B5B685B0C03F00103114AD35C4D
:1020AC00BB607B680D4A02FB03F2BB68B2FBF3F327
:1020BC007B6104E07B680C4A02FB03F37B617B6968
:1020CC003B6102E0054B3B6100BF3B6918461C3786
:1020DC00BD4680BC704700BF0010024000127A0061
:1020EC00482B0008582B000800093D0080B485B02F
:1020FC0000AF78600A4B1B680A4AA2FB03235B0AF9
:10210C007A6802FB03F3FB6000BFFB685A1EFA609F
:10211C00002BF9D100BF00BF1437BD4680BC7047FF
:10212C0018000020D34D621080B582B000AF7860EB
:10213C007B68002B01D1012341E07B6893F83D3093
:10214C00DBB2002B06D17B68002283F83C20786838
:10215C00FEF716FF7B68022283F83D207B681A6825
:10216C007B6804331946104600F056FA7B6801224E
:10217C0083F846207B68012283F83E207B6801228D
:10218C0083F83F207B68012283F840207B68012282
:10219C0083F841207B68012283F842207B6801226E
:1021AC0083F843207B68012283F844207B6801225A
:1021BC0083F845207B68012283F83D2000231846D4
:1021CC000837BD4680BD000080B485B000AF786094
:1021DC007B6893F83D30DBB2012B01D0012335E055
:1021EC007B68022283F83D207B681B68DA687B6879
:1021FC001B6842F00102DA607B681B68164A934246
:10220C0009D07B681B68B3F1804F04D07B681B68D6
:10221C00124A934211D17B681B689B6803F0070339
:10222C00FB60FB68062B10D07B681B681A687B6808
:10223C001B6842F001021A6007E07B681B681A6891
:10224C007B681B6842F001021A60002318461437A1
:10225C00BD4680BC704700BF002C0140000400400C
:10226C0080B584B000AF78607B681B68DB68FB606E
:10227C007B681B681B69BB60BB6803F00203002B07
:10228C0020D0FB6803F00203002B1BD07B681B687B
:10229C006FF002021A617B6801221A777B681B6857
:1022AC009B6903F00303002B03D0786800F098F9C6
:1022BC0005E0786800F08BF9786800F09AF97B6893
:1022CC0000221A77BB6803F00403002B20D0FB68B4
:1022DC0003F00403002B1BD07B681B686FF0040217
:1022EC001A617B6802221A777B681B689B6903F46E
:1022FC004073002B03D0786800F072F905E0786821
:10230C0000F065F9786800F074F97B6800221A77A0
:10231C00BB6803F00803002B20D0FB6803F0080314
:10232C00002B1BD07B681B686FF008021A617B685E
:10233C0004221A777B681B68DB6903F00303002B0C
:10234C0003D0786800F04CF905E0786800F03FF9AC
:10235C00786800F04EF97B6800221A77BB6803F0AE
:10236C001003002B20D0FB6803F01003002B1BD0B4
:10237C007B681B686FF010021A617B6808221A7761
:10238C007B681B68DB6903F44073002B03D078680F
:10239C0000F026F905E0786800F019F9786800F08B
:1023AC0028F97B6800221A77BB6803F00103002B25
:1023BC000CD0FB6803F00103002B07D07B681B6873
:1023CC006FF001021A617868FEF71AFCBB6803F023
:1023DC008003002B0CD0FB6803F08003002B07D08C
:1023EC007B681B686FF080021A61786800F06FFAE6
:1023FC00BB6803F04003002B0CD0FB6803F04003D8
:10240C00002B07D07B681B686FF040021A6178685C
:10241C0000F0F8F8BB6803F02003002B0CD0FB682D
:10242C0003F02003002B07D07B681B686FF02002A1
:10243C001A61786800F042FA00BF1037BD4680BDC3
:10244C0080B584B000AF786039600023FB737B6883
:10245C0093F83C30012B01D10223B4E07B680122BC
:10246C0083F83C207B68022283F83D207B681B6844
:10247C009B68BB60BB6823F07703BB60BB6823F42D
:10248C007F43BB607B681B68BA689A603B681B68BB
:10249C00B3F5005F3ED0B3F5005F00F28780B3F573
:1024AC00805F00F08680B3F5805F7FD8702B1AD0E8
:1024BC00702B7BD8602B50D0602B77D8502B3CD016
:1024CC00502B73D8402B58D0402B6FD8302B64D066
:1024DC00302B6BD8202B60D0202B67D8002B5CD0F6
:1024EC00102B5AD062E07B6818683B6899683B688F
:1024FC005A683B68DB6800F06AF97B681B689B686C
:10250C00BB60BB6843F07703BB607B681B68BA6831
:10251C009A604FE07B6818683B6899683B685A681A
:10252C003B68DB6800F053F97B681B689A687B6832
:10253C001B6842F480429A603CE07B6818683B68F8
:10254C0059683B68DB681A4600F0CAF87B681B6860
:10255C005021184600F021F92CE07B6818683B6884
:10256C0059683B68DB681A4600F0E8F87B681B6822
:10257C006021184600F011F91CE07B6818683B6874
:10258C0059683B68DB681A4600F0AAF87B681B6840
:10259C004021184600F001F90CE07B681A683B6892
:1025AC001B681946104600F0F8F803E00123FB7392
:1025BC0000E000BF7B68012283F83D207B6800228D
:1025CC0083F83C20FB7B18461037BD4680BD80B499
:1025DC0083B000AF786000BF0C37BD4680BC70473D
:1025EC0080B483B000AF786000BF0C37BD4680BCB0
:1025FC00704780B483B000AF786000BF0C37BD4625
:10260C0080BC704780B483B000AF786000BF0C37DB
:10261C00BD4680BC7047000080B485B000AF7860C8
:10262C0039607B681B68FB607B682B4A934207D040
:10263C007B68B3F1804F03D07B68284A934208D162
:10264C00FB6823F07003FB603B685B68FA6813431C
:10265C00FB607B68204A934207D07B68B3F1804FC4
:10266C0003D07B681D4A934208D1FB6823F4407366
:10267C00FB603B68DB68FA681343FB60FB6823F084
:10268C0080023B685B691343FB607B68FA681A60E5
:10269C003B689A687B68DA623B681A687B689A6266
:1026AC007B680D4A934203D13B681A697B681A63B5
:1026BC007B6801225A617B681B6903F00103002BC4
:1026CC0005D07B681B6923F001027B681A6100BF8F
:1026DC001437BD4680BC7047002C014000040040FC
:1026EC0080B487B000AFF860B9607A60FB681B6A91
:1026FC007B61FB681B6A23F00102FB681A62FB68B2
:10270C009B693B613B6923F0F0033B617B681B01D8
:10271C003A6913433B617B6923F00A037B617A6955
:10272C00BB6813437B61FB683A699A61FB687A6901
:10273C001A6200BF1C37BD4680BC704780B487B09E
:10274C0000AFF860B9607A60FB681B6A7B61FB685C
:10275C001B6A23F01002FB681A62FB689B693B61E1
:10276C003B6923F470433B617B681B033A69134359
:10277C003B617B6923F0A0037B61BB681B017A6919
:10278C0013437B61FB683A699A61FB687A691A6248
:10279C0000BF1C37BD4680BC704780B485B000AF0D
:1027AC00786039607B689B68FB60FB6823F0700382
:1027BC00FB603A68FB68134343F00703FB607B68DC
:1027CC00FA689A6000BF1437BD4680BC704780B46D
:1027DC0087B000AFF860B9607A603B60FB689B68BB
:1027EC007B617B6923F47F437B613B681A027B68C6
:1027FC001A43BB6813437A6913437B61FB687A699C
:10280C009A6000BF1C37BD4680BC704780B485B051
:10281C0000AF786039607B6893F83C30012B01D1B4
:10282C00022341E07B68012283F83C207B68022272
:10283C0083F83D207B681B685B68FB607B681B68CA
:10284C009B68BB60FB6823F07003FB603B681B68F4
:10285C00FA681343FB607B681B68FA685A607B68F4
:10286C001B68144A934209D07B681B68B3F1804FF4
:10287C0004D07B681B68104A93420CD1BB6823F0D0
:10288C008003BB603B685B68BA681343BB607B68C2
:10289C001B68BA689A607B68012283F83D207B68CC
:1028AC00002283F83C20002318461437BD4680BC18
:1028BC00704700BF002C01400004004080B483B07E
:1028CC0000AF786000BF0C37BD4680BC704780B449
:1028DC0083B000AF786000BF0C37BD4680BC70473A
:1028EC00014B1868704700BF2400002070B500260B
:1028FC000C4D0D4C641BA410A64209D100F0F6F847
:10290C0000260A4D0A4C641BA410A64205D170BDCA
:10291C0055F8043B98470136EEE755F8043B9847C9
:10292C000136F2E75C2B00085C2B00085C2B0008DE
:10293C00602B0008024B0146186800F05FB800BF1E
:10294C0024000020024B0146186800F00BB800BFB1
:10295C002400002003460244934200D1704703F840
:10296C00011BF9E738B50546002943D051F8043C62
:10297C000C1F002BB8BFE41800F0AAF81E4A13680D
:10298C00104633B9636014602846BDE8384000F047
:10299C00A5B8A3420AD921686218934201BF1A68EC
:1029AC005B685218226063600460EDE71A465B684E
:1029BC000BB1A342FAD911685018A0420BD1206870
:1029CC000144501883421160DED118685B680144E1
:1029DC0011605360D8E702D90C232B60D4E7206830
:1029EC0021188B4201BF19685B680918216063606C
:1029FC005460C9E738BD00BFB0000020F8B5CD1C4D
:102A0C0025F0030508350C2D38BF0C25002D064686
:102A1C0001DBA94203D90C2333600020F8BD00F080
:102A2C0057F821490A6814469CB9204F3B6823B9D2
:102A3C002146304600F03CF838602946304600F01C
:102A4C0037F8431C23D10C233046336000F046F892
:102A5C00E3E723685B1B17D40B2B03D923601C44BF
:102A6C00256004E06368A2420CBF0B6053603046E3
:102A7C0000F034F804F10B00231D20F00700C21AFB
:102A8C00CCD01B1AA350C9E722466468CCE7C41CFF
:102A9C0024F00304A042E3D0211A304600F008F8D9
:102AAC000130DDD1CFE700BFB0000020B400002022
:102ABC0038B50023054D044608462B60FEF7B6FAE0
:102ACC00431C02D12B6803B1236038BDC401002024
:102ADC00014800F009B800BFCC010020014800F00B
:102AEC0004B800BFCC01002070477047F8B500BF98
:102AFC00F8BC08BC9E467047F8B500BFF8BC08BCD3
:042B0C009E4670472A
:102B100040000000790000002400000030000000A8
:102B20001900000012000000020000007800000000
:102B30000000000010000000000000000000000085
:102B40000102030406070809020304050607080931
:0C2B50000A0B0C0D0E0F1010010200000B
:042B5C00310100083B
:042B60000D0100085B
:102B64000100000088130000D0070000B80B00002B
:102B7400010000000100000000127A0010000000B3
:102B840001000000280000200000000000000000F8
:102B94000000000000000000000000000000000031
:102BA4000000000000000000000000000000000021
:102BB4000000000000000000000000000000000011
:102BC4000000000000000000000000000000000001
:102BD40000000000000000000000000000000000F1
:082BE4000000000000000000E9
:04000005080012CD10
:00000001FF
