:020000040800F2
:1000000000280020C90C0008990B00089F0B00086D
:10001000A50B0008AB0B0008B10B000800000000A6
:10002000000000000000000000000000B70B000806
:10003000C30B000800000000CF0B0008DB0B00081A
:10004000110D0008110D0008110D0008110D000818
:10005000110D0008110D0008110D0008110D000808
:10006000110D0008110D0008110D0008110D0008F8
:10007000110D0008110D0008110D0008110D0008E8
:10008000110D0008110D0008110D0008110D0008D8
:10009000110D0008110D0008110D0008110D0008C8
:1000A000110D0008110D0008110D0008110D0008B8
:1000B000E90B0008110D000800000000110D0008F8
:1000C000110D00080000000000000000110D0008E4
:1000D00000000000110D0008110D000800000000D4
:1000E000110D0008110D0008110D0008000000009E
:1000F0000000000000000000000000000000000000
:0C01000000000000000000005FF808F1A3
:10010C0010B5054C237833B9044B13B10448AFF345
:10011C0000800123237010BD20000020000000008F
:10012C001023000808B5034B1BB103490348AFF378
:10013C00008008BD000000002400002010230008EF
:10014C0080B582B000AF00237B6012E04A4A7B6826
:10015C0052F8232049497B6841F82320484A7B68A0
:10016C0052F8232044497B6841F823207B680133F3
:10017C007B607B68022BE9DD4FF40051414801F0B4
:10018C00ADF803461A463E4B1A604FF480413D4889
:10019C0001F0A4F803461A46394B5A604FF400415B
:1001AC00384801F09BF803461A46354B9A600023F9
:1001BC003B6058E0304A3B6852F8232030493B689A
:1001CC0051F823309A424BD12B4A3B6852F82320EA
:1001DC002A493B6851F823309A4241D1274A3B685F
:1001EC0052F8232028493B6851F823309A4218D002
:1001FC00224A3B6852F8232023493B6841F82320CC
:10020C00214A3B6852F82330002B29D11F4A3B6806
:10021C00012142F823101E4A3B68C82142F82310E2
:10022C001EE01B4A3B6852F823305A1E18493B68A3
:10023C0041F82320164A3B6852F82330002B0FD18B
:10024C00134A3B68C82142F823100F4A3B6852F806
:10025C002330002B04D10F4A3B68012142F82310B4
:10026C003B6801333B603B68022BA3DD00BF00BF42
:10027C000837BD4680BD00BF6800002098000020F4
:10028C005C000020000C0140500000208C0000207D
:10029C007400002080000020B0B58EB000AF7860F4
:1002AC003960604B07F108041D460FCD0FC40FCD0C
:1002BC000FC495E8030084E803007B689B0007F1FA
:1002CC003802134453F8303C7B633B689B0007F1C6
:1002DC003802134453F8303C3B637B6BDBB203F0C6
:1002EC000103DBB21A4680214F4801F00EF87B6BFC
:1002FC005B10DBB203F00103DBB21A464FF48071E2
:10030C00494801F002F87B6B9B10DBB203F0010350
:10031C00DBB21A464FF40071434800F0F6FF7B6BDA
:10032C00DB10DBB203F00103DBB21A464FF4806141
:10033C003D4800F0EAFF7B6B1B11DBB203F00103BD
:10034C00DBB21A464FF40061374800F0DEFF7B6BDE
:10035C005B11DBB203F00103DBB21A464FF48051A0
:10036C00314800F0D2FF7B6B9B11DBB203F0010331
:10037C00DBB21A464FF400512B4800F0C6FF3B6B22
:10038C00DBB203F00103DBB21A464FF4804126487E
:10039C0000F0BBFF3B6B5B10DBB203F00103DBB285
:1003AC001A464FF40041204800F0AFFF3B6B9B1006
:1003BC00DBB203F00103DBB21A4601211B4800F04B
:1003CC00A4FF3B6BDB10DBB203F00103DBB21A467C
:1003DC000221164800F099FF3B6B1B11DBB203F0B6
:1003EC000103DBB21A460421104800F08EFF3B6B70
:1003FC005B11DBB203F00103DBB21A4608210B4898
:10040C0000F083FF3B6B9B11DBB203F00103DBB20B
:10041C001A461021054800F078FF00BF3837BD465A
:10042C00B0BD00BF2823000800080140000C0140AB
:10043C0080B500AF002240212D4800F066FF00225D
:10044C0080212B4800F061FF2A4B1B68002B21D127
:10045C0001224021264800F058FF00228021244828
:10046C0000F053FF244B1B68244A82FB03129210AA
:10047C00DB17D01A204B1A68204B83FB0213991000
:10048C00D317C91A0B469B000B445B00D11AFFF71C
:10049C0003FF20E000224021154800F036FF012226
:1004AC008021134800F031FF154B1B68134A82FB67
:1004BC0003129210DB17D01A114B1A680F4B83FBE7
:1004CC0002139910D317C91A0B469B000B445B00FF
:1004DC00D11AFFF7E1FE074B1B68002B0CBF012361
:1004EC000023DBB21A46034B1A6000BF80BD00BF6D
:1004FC00000C01403C00002040000020676666664E
:10050C004400002080B500AF064BDB68012B06D100
:10051C004FF4FA71032000F07FFAFFF789FF00BF58
:10052C0080BD00BFCC00002080B500AF244B1B6801
:10053C00062B0DD0062B19DC022B02D0042B0ED06F
:10054C0014E0002000F0B8FA03461E4A136011E0D4
:10055C00002000F0B1FA03461A4A13600AE00020AA
:10056C0000F0AAFA0346174A136003E0154B002269
:10057C001A6000BF144B1B68072B0DD0072B19DC1E
:10058C00032B02D0052B0ED014E0012000F094FABE
:10059C0003460E4A136011E0012000F08DFA034669
:1005AC000A4A13600AE0012000F086FA0346074A63
:1005BC00136003E0054B00221A6000BF00BF80BD32
:1005CC000000002048000020040000204C00002007
:1005DC0080B500AFFFF7A8FF7B4B1B68013B052BD9
:1005EC0074D801A252F823F00D0600082106000869
:1005FC00D906000895060008D90600085B06000815
:10060C00714B02221A60714B1B681946002000F0D6
:10061C0003FA5BE000F0F2FA002000F04DFA03461A
:10062C006B4A82FB03129211DB17D31A0133694A0E
:10063C001360694B1B68002B43D0634B06221A6076
:10064C00664B1B681946002000F0E6F939E000F013
:10065C0015FB002000F030FA03465D4A82FB0312C2
:10066C009211DB17D31A01335A4A13605A4B1B6889
:10067C00002B28D0544B04221A60594B1B68194686
:10068C00002000F0C9F91EE000F0D8FA002000F0BC
:10069C0013FA03464E4A82FB03129211DB17D31A4C
:1006AC0001334C4A13604C4B1B68002B0DD0464B4E
:1006BC0002221A60454B1B681946002000F0ACF969
:1006CC0003E000BF02E000BF00E000BF454B1B6829
:1006DC00013B062B76D801A252F823F0050700083F
:1006EC00D10700088D070008D10700085307000840
:1006FC00D1070008190700083A4B07221A60374B3C
:10070C001B681946012000F087F95BE000F0C6FA7F
:10071C00012000F0D1F903462D4A82FB03129211FD
:10072C00DB17D31A0133304A13602B4B5B68002B59
:10073C0043D02C4B05221A60294B1B68194601200B
:10074C0000F06AF939E000F089FA012000F0B4F900
:10075C0003461F4A82FB03129211DB17D31A013393
:10076C00214A13601C4B5B68002B28D01D4B0322C5
:10077C001A60164B1B681946012000F04DF91EE05B
:10078C0000F04CFA012000F097F90346104A82FB66
:10079C0003129211DB17D31A0133134A13600E4B59
:1007AC005B68002B0DD00F4B07221A600B4B1B689C
:1007BC001946012000F030F903E000BF02E000BF51
:1007CC0000E000BF00BF80BD00000020080000203A
:1007DC00D34D621040000020CC00002010000020FF
:1007EC000C000020040000204400002080B500AF65
:1007FC0000F08AFA00F014F800F04EF800F098F8C7
:10080C00064801F0C7F94FF4FA71032000F004F91F
:10081C00FFF778FEFFF7DCFEFAE700BFF4000020DC
:10082C0080B590B000AF07F11803282200211846BC
:10083C0001F060FD3B1D00221A605A609A60DA607C
:10084C001A610223BB610123BB621023FB620023EC
:10085C007B6307F11803184600F070FD0346002B6C
:10086C0001D000F0D3F80F237B600023BB60002382
:10087C00FB6000233B6100237B613B1D002118467C
:10088C0000F0DCFF0346002B01D000F0BFF800BFE6
:10089C004037BD4680BD000080B586B000AF07F183
:1008AC00080300221A605A609A60DA603B46002204
:1008BC001A605A601D4B4FF080421A601B4B41F678
:1008CC003F725A60194B00229A60184B0922DA6069
:1008DC00164B00221A61154B00229A61134801F045
:1008EC0009F90346002B01D000F090F84FF4805327
:1008FC00BB6007F1080319460C4801F087FA034660
:10090C00002B01D000F082F800233B6000237B60B9
:10091C003B461946054801F05FFC0346002B01D00D
:10092C0000F074F800BF1837BD4680BDF4000020FD
:10093C0080B586B000AF07F1080300221A605A6038
:10094C009A60DA60284B9B69274A43F00403936151
:10095C00254B9B6903F004037B607B68224B9B69EE
:10096C00214A43F0080393611F4B9B6903F0080372
:10097C003B603B6800224FF6FE711C4800F0C5FC42
:10098C000022DF211A4800F0C0FC4FF6FE73BB605A
:10099C000123FB6000233B6102237B6107F1080309
:1009AC001946124800F020FBDF23BB600123FB60DB
:1009BC0000233B6102237B6107F1080319460C48B5
:1009CC0000F012FB4FF46043BB600023FB6001237B
:1009DC003B6107F108031946054800F005FB00BF11
:1009EC001837BD4680BD00BF001002400008014012
:1009FC00000C014080B582B000AF786000F02CF89C
:100A0C00FFF79EFB00BF0837BD4680BD80B400AF2A
:100A1C0072B600BFFEE7000080B483B000AF786010
:100A2C0039600A4A7B68002142F823103B68084A67
:100A3C0082FB03129210DB17D21A06497B6841F82D
:100A4C00232000BF0C37BD4680BC7047CC00002073
:100A5C0067666666A400002080B483B000AF0023F4
:100A6C007B601CE0124A7B6852F82330002B13DDAC
:100A7C000F4A7B6852F823305A1E0D497B6841F8A7
:100A8C0023200B4A7B6852F82330002B04DC094AE4
:100A9C007B68012142F823107B6801337B607B6803
:100AAC00092BDFDD00BF00BF0C37BD4680BC704793
:100ABC00A4000020CC00002080B483B000AF78608C
:100ACC00064A7B6852F8232013469B0013445B00B4
:100ADC0018460C37BD4680BC704700BFA4000020F0
:100AEC0080B485B000AF154B9B69144A43F00103E9
:100AFC009361124B9B6903F00103BB60BB680F4B06
:100B0C00DB690E4A43F08053D3610C4BDB6903F075
:100B1C0080537B607B680A4B5B68FB60FB6823F04F
:100B2C00E063FB60FB6843F08063FB60044AFB6896
:100B3C00536000BF1437BD4680BC704700100240A4
:100B4C000000014080B584B000AF78607B681B6802
:100B5C00B3F1804F13D10C4BDB690B4A43F001030B
:100B6C00D361094BDB6903F00103FB60FB680022D6
:100B7C0000211C2000F001FA1C2000F01AFA00BF22
:100B8C001037BD4680BD00BF0010024080B400AFDE
:100B9C00FEE780B400AFFEE780B400AFFEE780B4A0
:100BAC0000AFFEE780B400AFFEE780B400AF00BF3B
:100BBC00BD4680BC704780B400AF00BFBD4680BC52
:100BCC00704780B400AF00BFBD4680BC704780B595
:100BDC0000AF00F0DFF800BF80BD000080B500AFB3
:100BEC00024801F023F800BF80BD00BFF4000020D4
:100BFC0080B400AF00BFBD4680BC704780B500AF6D
:100C0C0000220421044800F080FB0122022102484A
:100C1C0000F07BFB00BF80BD0008014080B500AF39
:100C2C0000222021044800F070FB01221021024810
:100C3C0000F06BFB00BF80BD0008014080B500AF29
:100C4C0000220821044800F060FB01220421024824
:100C5C0000F05BFB00BF80BD0008014080B500AF19
:100C6C0000224021044800F050FB012220210248C0
:100C7C0000F04BFB00BF80BD0008014080B500AF09
:100C8C0000220221044800F040FB01220821024806
:100C9C0000F03BFB00BF80BD0008014080B500AFF9
:100CAC0000221021044800F030FB012240210248B0
:100CBC0000F02BFB00BF80BD00080140FFF798FF40
:100CCC000B480C490C4A002302E0D458C45004339E
:100CDC00C4188C42F9D3094A094C002301E0136073
:100CEC000432A242FBD301F0E1FAFFF77FFD70471B
:100CFC0000000020200000207C23000820000020A1
:100D0C0040010020FEE7000080B500AF084B1B68D7
:100D1C00074A43F010031360032000F023F90F205F
:100D2C0000F008F8FFF7DCFE0023184680BD00BF7A
:100D3C000020024080B582B000AF7860124B1A6878
:100D4C00124B1B7819464FF47A73B3FBF1F3B2FBD9
:100D5C00F3F3184600F03BF90346002B01D00123B6
:100D6C000EE07B680F2B0AD8002279684FF0FF3019
:100D7C0000F003F9064A7B681360002300E00123AE
:100D8C0018460837BD4680BD140000201C0000200A
:100D9C001800002080B400AF054B1B781A46054B99
:100DAC001B681344034A136000BFBD4680BC7047E8
:100DBC001C0000203C01002080B400AF024B1B68DB
:100DCC001846BD4680BC70473C01002080B485B0FD
:100DDC0000AF78607B6803F00703FB600C4BDB68AB
:100DEC00BB60BA684FF6FF031340BB60FB681A0286
:100DFC00BB68134343F0BF6343F40033BB60044A46
:100E0C00BB68D36000BF1437BD4680BC704700BFC1
:100E1C0000ED00E080B400AF044BDB681B0A03F06C
:100E2C0007031846BD4680BC704700BF00ED00E0CC
:100E3C0080B483B000AF0346FB7197F90730002BE9
:100E4C000BDBFB7903F01F02064997F907305B09AE
:100E5C00012000FA02F241F8232000BF0C37BD46F6
:100E6C0080BC704700E100E080B483B000AF034663
:100E7C003960FB7197F90730002B0ADB3B68DAB25B
:100E8C000C4997F907301201D2B20B4483F80023B6
:100E9C000AE03B68DAB20849FB7903F00F03043B24
:100EAC001201D2B20B441A7600BF0C37BD4680BC7F
:100EBC00704700BF00E100E000ED00E080B489B0B5
:100ECC0000AFF860B9607A60FB6803F00703FB6160
:100EDC00FB69C3F10703042B28BF0423BB61FB6927
:100EEC000433062B02D9FB69033B00E000237B6132
:100EFC004FF0FF32BB6902FA03F3DA43BB681A40C6
:100F0C007B699A404FF0FF317B6901FA03F3D943B7
:100F1C007B680B40134318462437BD4680BC704792
:100F2C0080B582B000AF78607B68013BB3F1807F05
:100F3C0001D301230FE00A4A7B68013B53600F2168
:100F4C004FF0FF30FFF790FF054B00229A60044BE7
:100F5C0007221A60002318460837BD4680BD00BF23
:100F6C0010E000E080B582B000AF78607868FFF7E1
:100F7C002DFF00BF0837BD4680BD80B586B000AFE1
:100F8C000346B9607A60FB7300237B61FFF742FF75
:100F9C0078617A68B9687869FFF790FF024697F92B
:100FAC000F3011461846FFF75FFF00BF1837BD46DC
:100FBC0080BD80B582B000AF0346FB7197F9073056
:100FCC001846FFF735FF00BF0837BD4680BD80B51A
:100FDC0082B000AF78607868FFF7A2FF034618462E
:100FEC000837BD4680BD000080B48BB000AF786080
:100FFC00396000237B6200233B6248E101227B6A5B
:10100C0002FA03F3FB613B681B68FA691340BB618E
:10101C00BA69FB699A4240F037813B685B68A34A26
:10102C0093425ED0A14A934275D8A14A934258D0BC
:10103C009F4A93426FD89F4A934252D09D4A934203
:10104C0069D89D4A93424CD09B4A934263D89B4AA1
:10105C00934246D0994A93425DD8122B2AD8122B30
:10106C0059D801A252F823F0EF100008C91000085B
:10107C00DB1000081D1100082311000823110008C3
:10108C002311000823110008231100082311000864
:10109C002311000823110008231100082311000854
:1010AC00231100082311000823110008D110000897
:1010BC00E5100008824A934213D02CE03B68DB68B1
:1010CC003B6229E03B68DB6804333B6224E03B680D
:1010DC00DB6808333B621FE03B68DB680C333B6228
:1010EC001AE03B689B68002B02D104233B6213E09F
:1010FC003B689B68012B05D108233B627B68FA692E
:10110C001A6109E008233B627B68FA695A6103E0C3
:10111C0000233B6200E000BFBB69FF2B01D87B685A
:10112C0001E07B6804337B61BB69FF2B02D87B6ACF
:10113C009B0002E07B6A083B9B003B617B691A6861
:10114C000F213B6901FA03F3DB431A40396A3B690F
:10115C0001FA03F31A437B691A603B685B6803F07E
:10116C008053002B00F09080564B9B69554A43F0FE
:10117C0001039361534B9B6903F00103BB60BB6894
:10118C00514A7B6A9B08023352F82330FB607B6A1E
:10119C0003F003039B000F2202FA03F3DB43FA680C
:1011AC001340FB607B68494A93420DD07B68484AE8
:1011BC00934207D07B68474A934201D1022304E053
:1011CC00032302E0012300E000237A6A02F0030209
:1011DC0092009340FA681343FB603B497B6A9B087F
:1011EC000233FA6841F823203B685B6803F48013F0
:1011FC00002B06D0384B9A683749BB6913438B6078
:10120C0006E0354B9A68BB69DB43334913408B606E
:10121C003B685B6803F40013002B06D02E4BDA6896
:10122C002D49BB691343CB6006E02B4BDA68BB69D5
:10123C00DB4329491340CB603B685B6803F4003304
:10124C00002B06D0244B5A682349BB6913434B60CF
:10125C0006E0214B5A68BB69DB431F4913404B60C6
:10126C003B685B6803F48033002B06D01A4B1A687A
:10127C001949BB6913430B6006E0174B1A68BB692D
:10128C00DB43154913400B607B6A01337B623B687F
:10129C001A687B6A22FA03F3002B7FF4AFAE00BF0F
:1012AC0000BF2C37BD4680BC704700BF0000321019
:1012BC00000031100000221000002110000012105C
:1012CC000000111000100240000001400008014015
:1012DC00000C0140001001400004014080B485B0B6
:1012EC0000AF78600B467B807B689A687B881340E4
:1012FC00002B02D00123FB7301E00023FB73FB7B6B
:10130C0018461437BD4680BC704780B483B000AF1C
:10131C0078600B467B8013467B707B78002B03D068
:10132C007A887B681A6103E07B881A047B681A61EF
:10133C0000BF0C37BD4680BC7047000080B586B03E
:10134C0000AF78607B68002B01D101236CE27B68D5
:10135C001B6803F00103002B00F08780924B5B6845
:10136C0003F00C03042B0CD08F4B5B6803F00C03C5
:10137C00082B12D18C4B5B6803F48033B3F5803FA0
:10138C000BD1894B1B6803F40033002B6CD07B68AA
:10139C005B68002B68D1012346E27B685B68B3F580
:1013AC00803F06D1804B1B687F4A43F48033136027
:1013BC002EE07B685B68002B0CD17B4B1B687A4A58
:1013CC0023F480331360784B1B68774A23F4802313
:1013DC0013601DE07B685B68B3F5A02F0CD1724BDA
:1013EC001B68714A43F4802313606F4B1B686E4A71
:1013FC0043F4803313600BE06B4B1B686A4A23F495
:10140C0080331360684B1B68674A23F48023136096
:10141C007B685B68002B13D0FFF7CEFC386108E0CB
:10142C00FFF7CAFC02463B69D31A642B01D903238C
:10143C00FAE15D4B1B6803F40033002BF0D014E091
:10144C00FFF7BAFC386108E0FFF7B6FC02463B69CF
:10145C00D31A642B01D90323E6E1534B1B6803F425
:10146C000033002BF0D100E000BF7B681B6803F059
:10147C000203002B63D04C4B5B6803F00C03002B76
:10148C000BD0494B5B6803F00C03082B1CD1464B6B
:10149C005B6803F48033002B16D1434B1B6803F0BD
:1014AC000203002B05D07B681B69012B01D00123A3
:1014BC00BAE13D4B1B6823F0F8027B685B69DB00EB
:1014CC00394913430B603AE07B681B69002B20D031
:1014DC00364B01221A60FFF76FFC386108E0FFF70A
:1014EC006BFC02463B69D31A022B01D903239BE107
:1014FC002D4B1B6803F00203002BF0D02A4B1B680A
:10150C0023F0F8027B685B69DB00274913430B600F
:10151C0015E0264B00221A60FFF74EFC386108E0FC
:10152C00FFF74AFC02463B69D31A022B01D903236D
:10153C007AE11D4B1B6803F00203002BF0D17B6892
:10154C001B6803F00803002B3AD07B689B69002BC7
:10155C0019D0174B01221A60FFF72EFC386108E0F6
:10156C00FFF72AFC02463B69D31A022B01D903234D
:10157C005AE10D4B5B6A03F00203002BF0D0012003
:10158C0000F09AFA1CE00A4B00221A60FFF714FCD8
:10159C0038610FE0FFF710FC02463B69D31A022BAF
:1015AC0008D9032340E100BF001002400000424272
:1015BC00800442429E4B5B6A03F00203002BE9D18C
:1015CC007B681B6803F00403002B00F0A68000234B
:1015DC00FB75974BDB6903F08053002B0DD1944BBB
:1015EC00DB69934A43F08053D361914BDB6903F081
:1015FC008053BB60BB680123FB758E4B1B6803F4E7
:10160C008073002B18D18B4B1B688A4A43F4807370
:10161C001360FFF7D1FB386108E0FFF7CDFB024602
:10162C003B69D31A642B01D90323FDE0814B1B6862
:10163C0003F48073002BF0D07B68DB68012B06D1A0
:10164C007B4B1B6A7A4A43F0010313622DE07B68E3
:10165C00DB68002B0CD1764B1B6A754A23F0010317
:10166C001362734B1B6A724A23F0040313621CE06F
:10167C007B68DB68052B0CD16D4B1B6A6C4A43F005
:10168C00040313626A4B1B6A694A43F00103136239
:10169C000BE0674B1B6A664A23F001031362644B31
:1016AC001B6A634A23F0040313627B68DB68002B1C
:1016BC0015D0FFF781FB38610AE0FFF77DFB02468E
:1016CC003B69D31A41F28832934201D90323ABE030
:1016DC00574B1B6A03F00203002BEED014E0FFF70C
:1016EC006BFB38610AE0FFF767FB02463B69D31AD4
:1016FC0041F28832934201D9032395E04C4B1B6A8B
:10170C0003F00203002BEED1FB7D012B05D1484BDE
:10171C00DB69474A23F08053D3617B68DB69002B7C
:10172C0000F08180424B5B6803F00C03082B61D006
:10173C007B68DB69022B46D13F4B00221A60FFF716
:10174C003BFB386108E0FFF737FB02463B69D31AD5
:10175C00022B01D9032367E0354B1B6803F00073A0
:10176C00002BF0D17B681B6AB3F5803F08D1304B5E
:10177C005B6823F400327B689B682D4913434B60F4
:10178C002B4B5B6823F474127B68196A7B685B6A69
:10179C000B43274913434B60274B01221A60FFF779
:1017AC000BFB386108E0FFF707FB02463B69D31AD5
:1017BC00022B01D9032337E01D4B1B6803F0007388
:1017CC00002BF0D02FE01C4B00221A60FFF7F4FA2C
:1017DC00386108E0FFF7F0FA02463B69D31A022B96
:1017EC0001D9032320E0124B1B6803F00073002B7C
:1017FC00F0D118E07B68DB69012B01D1012313E0E8
:10180C000B4B5B68FB60FB6803F480327B681B6AE4
:10181C009A4206D1FB6803F470127B685B6A9A42A9
:10182C0001D0012300E0002318461837BD4680BDC7
:10183C0000100240007000406000424280B584B04D
:10184C0000AF786039607B68002B01D10123D0E0B8
:10185C006A4B1B6803F007033A689A4210D9674B2E
:10186C001B6823F0070265493B6813430B60634B0D
:10187C001B6803F007033A689A4201D00123B8E0D1
:10188C007B681B6803F00203002B20D07B681B686D
:10189C0003F00403002B05D0594B5B68584A43F402
:1018AC00E06353607B681B6803F00803002B05D0D2
:1018BC00534B5B68524A43F460535360504B5B6824
:1018CC0023F0F0027B689B684D4913434B607B68A7
:1018DC001B6803F00103002B40D07B685B68012B75
:1018EC0007D1474B1B6803F40033002B15D10123A0
:1018FC007FE07B685B68022B07D1414B1B6803F0D0
:10190C000073002B09D1012373E03D4B1B6803F0DE
:10191C000203002B01D101236BE0394B5B6823F0F0
:10192C0003027B685B68364913434B60FFF744FA4C
:10193C00F8600AE0FFF740FA0246FB68D31A41F25E
:10194C008832934201D9032353E02D4B5B6803F09B
:10195C000C027B685B689B009A42EBD1274B1B689F
:10196C0003F007033A689A4210D2244B1B6823F009
:10197C00070222493B6813430B60204B1B6803F0A2
:10198C0007033A689A4201D0012332E07B681B6856
:10199C0003F00403002B08D0194B5B6823F4E062BE
:1019AC007B68DB68164913434B607B681B6803F04C
:1019BC000803002B09D0124B5B6823F460527B6840
:1019CC001B69DB000E4913434B6000F021F8024603
:1019DC000B4B5B681B0903F00F030A49CB5C22FA23
:1019EC0003F3094A1360094B1B681846FFF7A2F969
:1019FC00002318461037BD4680BD00BF00200240B2
:101A0C000010024050230008140000201800002091
:101A1C0080B487B000AF0023FB600023BB600023C1
:101A2C007B6100237B6000233B611E4B5B68FB608A
:101A3C00FB6803F00C03042B02D0082B03D027E027
:101A4C00194B3B6127E0FB689B0C03F00F03174A13
:101A5C00D35C7B60FB6803F48033002B10D0114BFC
:101A6C005B685B0C03F00103114AD35CBB607B68C1
:101A7C000D4A02FB03F2BB68B2FBF3F37B6104E09B
:101A8C007B680C4A02FB03F37B617B693B6102E0E0
:101A9C00054B3B6100BF3B6918461C37BD4680BCFB
:101AAC00704700BF0010024000127A00602300084B
:101ABC007023000800093D0080B485B000AF786049
:101ACC000A4B1B680A4AA2FB03235B0A7A6802FBD7
:101ADC0003F3FB6000BFFB685A1EFA60002BF9D1C0
:101AEC0000BF00BF1437BD4680BC704714000020F7
:101AFC00D34D621080B582B000AF78607B68002B4C
:101B0C0001D1012341E07B6893F83D30DBB2002B1F
:101B1C0006D17B68002283F83C207868FFF712F826
:101B2C007B68022283F83D207B681A687B6804334B
:101B3C001946104600F056FA7B68012283F84620BD
:101B4C007B68012283F83E207B68012283F83F20CA
:101B5C007B68012283F840207B68012283F84120B6
:101B6C007B68012283F842207B68012283F84320A2
:101B7C007B68012283F844207B68012283F845208E
:101B8C007B68012283F83D20002318460837BD46A8
:101B9C0080BD000080B485B000AF78607B6893F89E
:101BAC003D30DBB2012B01D0012335E07B680222F2
:101BBC0083F83D207B681B68DA687B681B6842F001
:101BCC000102DA607B681B68164A934209D07B6875
:101BDC001B68B3F1804F04D07B681B68124A934298
:101BEC0011D17B681B689B6803F00703FB60FB68E3
:101BFC00062B10D07B681B681A687B681B6842F048
:101C0C0001021A6007E07B681B681A687B681B6816
:101C1C0042F001021A60002318461437BD4680BCFE
:101C2C00704700BF002C01400004004080B584B018
:101C3C0000AF78607B681B68DB68FB607B681B68A7
:101C4C001B69BB60BB6803F00203002B20D0FB6850
:101C5C0003F00203002B1BD07B681B686FF00202A1
:101C6C001A617B6801221A777B681B689B6903F0F9
:101C7C000303002B03D0786800F098F905E078682E
:101C8C0000F08BF9786800F09AF97B6800221A77DB
:101C9C00BB6803F00403002B20D0FB6803F00403A3
:101CAC00002B1BD07B681B686FF004021A617B68E9
:101CBC0002221A777B681B689B6903F44073002B24
:101CCC0003D0786800F072F905E0786800F065F9E7
:101CDC00786800F074F97B6800221A77BB6803F00F
:101CEC000803002B20D0FB6803F00803002B1BD04B
:101CFC007B681B686FF008021A617B6804221A77F4
:101D0C007B681B68DB6903F00303002B03D0786846
:101D1C0000F04CF905E0786800F03FF9786800F0C5
:101D2C004EF97B6800221A77BB6803F01003002B76
:101D3C0020D0FB6803F01003002B1BD07B681B68C2
:101D4C006FF010021A617B6808221A777B681B6897
:101D5C00DB6903F44073002B03D0786800F026F99C
:101D6C0005E0786800F019F9786800F028F97B68CC
:101D7C0000221A77BB6803F00103002B0CD0FB6820
:101D8C0003F00103002B07D07B681B686FF0010286
:101D9C001A617868FEF72EFEBB6803F08003002BF7
:101DAC000CD0FB6803F08003002B07D07B681B680A
:101DBC006FF080021A61786800F06FFABB6803F06C
:101DCC004003002B0CD0FB6803F04003002B07D022
:101DDC007B681B686FF040021A61786800F0F8F8B5
:101DEC00BB6803F02003002B0CD0FB6803F020032E
:101DFC00002B07D07B681B686FF020021A61786893
:101E0C0000F042FA00BF1037BD4680BD80B584B0EB
:101E1C0000AF786039600023FB737B6893F83C302B
:101E2C00012B01D10223B4E07B68012283F83C2012
:101E3C007B68022283F83D207B681B689B68BB6033
:101E4C00BB6823F07703BB60BB6823F47F43BB60A4
:101E5C007B681B68BA689A603B681B68B3F5005FC7
:101E6C003ED0B3F5005F00F28780B3F5805F00F0E1
:101E7C008680B3F5805F7FD8702B1AD0702B7BD8FF
:101E8C00602B50D0602B77D8502B3CD0502B73D874
:101E9C00402B58D0402B6FD8302B64D0302B6BD8C4
:101EAC00202B60D0202B67D8002B5CD0102B5AD065
:101EBC0062E07B6818683B6899683B685A683B68C5
:101ECC00DB6800F06AF97B681B689B68BB60BB68C9
:101EDC0043F07703BB607B681B68BA689A604FE07D
:101EEC007B6818683B6899683B685A683B68DB6894
:101EFC0000F053F97B681B689A687B681B6842F496
:101F0C0080429A603CE07B6818683B6859683B6883
:101F1C00DB681A4600F0CAF87B681B68502118462B
:101F2C0000F021F92CE07B6818683B6859683B6825
:101F3C00DB681A4600F0E8F87B681B6860211846DD
:101F4C0000F011F91CE07B6818683B6859683B6825
:101F5C00DB681A4600F0AAF87B681B68402118461B
:101F6C0000F001F90CE07B681A683B681B681946A5
:101F7C00104600F0F8F803E00123FB7300E000BF0B
:101F8C007B68012283F83D207B68002283F83C208B
:101F9C00FB7B18461037BD4680BD80B483B000AFC4
:101FAC00786000BF0C37BD4680BC704780B483B0EE
:101FBC0000AF786000BF0C37BD4680BC704780B462
:101FCC0083B000AF786000BF0C37BD4680BC704753
:101FDC0080B483B000AF786000BF0C37BD4680BCC6
:101FEC007047000080B485B000AF786039607B68C2
:101FFC001B68FB607B682B4A934207D07B68B3F16C
:10200C00804F03D07B68284A934208D1FB6823F0A9
:10201C007003FB603B685B68FA681343FB607B688A
:10202C00204A934207D07B68B3F1804F03D07B6882
:10203C001D4A934208D1FB6823F44073FB603B6854
:10204C00DB68FA681343FB60FB6823F080023B6893
:10205C005B691343FB607B68FA681A603B689A689B
:10206C007B68DA623B681A687B689A627B680D4A07
:10207C00934203D13B681A697B681A637B6801221F
:10208C005A617B681B6903F00103002B05D07B6848
:10209C001B6923F001027B681A6100BF1437BD462F
:1020AC0080BC7047002C01400004004080B487B015
:1020BC0000AFF860B9607A60FB681B6A7B61FB68F3
:1020CC001B6A23F00102FB681A62FB689B693B6187
:1020DC003B6923F0F0033B617B681B013A691343B6
:1020EC003B617B6923F00A037B617A69BB6813430C
:1020FC007B61FB683A699A61FB687A691A6200BF76
:10210C001C37BD4680BC704780B487B000AFF86008
:10211C00B9607A60FB681B6A7B61FB681B6A23F001
:10212C001002FB681A62FB689B693B613B6923F4F4
:10213C0070433B617B681B033A6913433B617B69CA
:10214C0023F0A0037B61BB681B017A6913437B619D
:10215C00FB683A699A61FB687A691A6200BF1C379E
:10216C00BD4680BC704780B485B000AF78603960E4
:10217C007B689B68FB60FB6823F07003FB603A682C
:10218C00FB68134343F00703FB607B68FA689A60B3
:10219C0000BF1437BD4680BC704780B487B000AF19
:1021AC00F860B9607A603B60FB689B687B617B6917
:1021BC0023F47F437B613B681A027B681A43BB683C
:1021CC0013437A6913437B61FB687A699A6000BF99
:1021DC001C37BD4680BC704780B485B000AF7860BA
:1021EC0039607B6893F83C30012B01D1022341E02C
:1021FC007B68012283F83C207B68022283F83D2017
:10220C007B681B685B68FB607B681B689B68BB60BA
:10221C00FB6823F07003FB603B681B68FA68134390
:10222C00FB607B681B68FA685A607B681B68144A01
:10223C00934209D07B681B68B3F1804F04D07B6854
:10224C001B68104A93420CD1BB6823F08003BB601F
:10225C003B685B68BA681343BB607B681B68BA68F1
:10226C009A607B68012283F83D207B68002283F80A
:10227C003C20002318461437BD4680BC704700BF75
:10228C00002C01400004004080B483B000AF7860A3
:10229C0000BF0C37BD4680BC704780B483B000AF24
:1022AC00786000BF0C37BD4680BC704770B5002607
:1022BC000C4D0D4C641BA410A64209D100F022F861
:1022CC0000260A4D0A4C641BA410A64205D170BD11
:1022DC0055F8043B98470136EEE755F8043B984710
:1022EC000136F2E7742300087423000874230008F5
:1022FC007823000803460244934200D1704703F848
:10230C00011BF9E7F8B500BFF8BC08BC9E46704746
:0C231C00F8B500BFF8BC08BC9E46704736
:102328004000000079000000240000003000000098
:1023380019000000120000000200000078000000F0
:102348000000000010000000000000000000000075
:102358000102030406070809020304050607080921
:0C2368000A0B0C0D0E0F101001020000FB
:04237400310100082B
:042378000D0100084B
:10237C00010000000100000088130000D0070000DD
:10238C00B80B000000127A001000000001000000E1
:0400000508000CC91A
:00000001FF
